:020000040800F2
:1000000008070020890100082F1400080D100008BF
:100010002D1400088F0200087B1500080000000066
:10002000000000000000000000000000FD140008B7
:100030009102000800000000311400082515000896
:10004000A3010008A3010008A3010008A301000800
:10005000A3010008A3010008A3010008A3010008F0
:10006000A3010008A3010008A3010008A3010008E0
:10007000A3010008A3010008A3010008A3010008D0
:10008000A3010008A3010008A3010008A3010008C0
:10009000A3010008A3010008A3010008A3010008B0
:1000A000A3010008A3010008A3010008A3010008A0
:1000B000A3010008A3010008A3010008A301000890
:1000C000A3010008A3010008A3010008A301000880
:1000D000A3010008A3010008A3010008A301000870
:1000E000A3010008A3010008A301000800F002F822
:1000F00000F03AF80AA090E8000C82448344AAF188
:100100000107DA4501D100F02FF8AFF2090EBAE885
:100110000F0013F0010F18BFFB1A43F0010318473B
:10012000901A0000B01A0000103A24BF78C878C1B5
:10013000FAD8520724BF30C830C144BF04680C60ED
:10014000704700000023002400250026103A28BF35
:1001500078C1FBD8520728BF30C148BF0B60704739
:100160001FB51FBD10B510BD00F058F81146FFF7C0
:10017000F7FF01F045FA00F076F803B4FFF7F2FF5D
:1001800003BC00F07DF8000009488047094800479B
:10019000FEE7FEE7FEE7FEE7FEE7FEE7FEE7FEE737
:1001A000FEE7FEE704480549054A064B7047000094
:1001B00079150008ED00000808010020080700205C
:1001C00008030020080300204FF0000200B513468A
:1001D00094469646203922BFA0E80C50A0E80C5067
:1001E000B1F12001BFF4F7AF090728BFA0E80C5018
:1001F00048BF0CC05DF804EB890028BF40F8042B11
:1002000008BF704748BF20F8022B11F0804F18BF7D
:1002100000F8012B7047704770477047754600F033
:100220002BF8AE4605006946534620F00700854688
:1002300018B020B5FFF7B6FFBDE820404FF000062C
:100240004FF000074FF000084FF0000B21F00701BE
:10025000AC46ACE8C009ACE8C009ACE8C009ACE801
:10026000C0098D46704710B50446AFF300802046A4
:10027000BDE81040FFF781BF00487047A400002090
:1002800001491820ABBEFEE7260002007047FEE7DA
:100290007047000070B5044600F0FEF80546601C8B
:1002A00002D004480078044400F0F6F8401BA04255
:1002B000FAD370BD200000202DE9F84FDFF8B89187
:1002C000002409F1040A0AF1040B23460F270BF15D
:1002D000040EC9E00125A5402A40AA427DD1674EFF
:1002E000D1F804C0ACEB0608B44532D014DCBCF144
:1002F000030F3AD009DCBCF1000F2AD0BCF1010F8A
:100300001CD0BCF1020F31D11DE0BCF1110F17D090
:10031000BCF1120F2AD119E0B8F5881F19D006DCFC
:10032000B8F5803F15D0B8F5801F1FD111E0B8F5A2
:10033000001F0ED0B8F5041F18D10AE0CB6815E0F5
:10034000CB681B1D12E0CB6808330FE0CB680C3381
:100350000CE08B682BB1012B4FF0080303D04561F3
:1003600004E0042302E0056100E00023FF2A01D835
:10037000064601E000F104064FEA840501D9A5F123
:100380002005D6F8008007FA05FC28EA0C0803FAD5
:1003900005F548EA0508C6F800804D68ED0062D50D
:1003A000374DAE6946F00106AE61AD6924F0030633
:1003B00005F001050095334D06EB050CDCF80850FF
:1003C000A607360F07FA06F825EA0805DFF8B88011
:1003D000404503D14FF0000817E044E0DFF8AC805F
:1003E000404502D14FF001080FE0DFF8A4804045FE
:1003F00002D14FF0020808E0DFF89880404502D1B2
:100400004FF0030801E04FF0040808FA06F848EA44
:100410000508CCF808804D68D9F80060ED034D461A
:1004200001D5164300E096432E604D68DAF800606F
:10043000AD03554601D5164300E096432E604D6846
:10044000DBF80060ED025D4601D5164300E09643FF
:100450002E604D68DEF80060AD02754601D516438A
:1004600000E096432E60641C0D682A46E5407FF448
:1004700031AFBDE8F88F000000040140000011100A
:10048000001002400000014000080140000C014043
:1004900000100140001401400148806870470000CE
:1004A0002000002070B5040025D094F83D00002500
:1004B00020B984F83C50204600F070FA242084F8DB
:1004C0003D002068016821F0010101602068016899
:1004D00041F4004101602068016821F4004101609D
:1004E00000F0AAFB4D4A6168914201D84C4900E0F6
:1004F0004C49884201D2012070BD4B492368B0FBB2
:10050000F1F15E6826F03F060E435E606368934239
:1005100006D94FF4967359434FF47A73B1FBF3F154
:100520002368491C1E6A26F03F0631431962616840
:10053000914210D84900401EB0FBF1F2521CC2F3A8
:100540000B02042A01D2042022E0B0FBF1F0401C8F
:10055000C0F30B001CE0A268F2B301EBC10303EB94
:100560000116431EB3FBF6F35B1C43F480431B05EB
:1005700049D092B301EBC10202EB0111401EB0FB66
:10058000F1F0401CC0F30B0040F4804040F4004008
:100590002168CA694CF6FF739A431043C861D4E9D5
:1005A000071001432068026822F0C0021143016075
:1005B000D4E9030101432068826848F2FF339A437B
:1005C00011438160D4E9050108432168CA6822F01B
:1005D000FF021043C86001E00EE016E020680168E9
:1005E00041F0010101602564202084F83D0025636D
:1005F00084F83E50002070BD01EB4106431EB3FB62
:10060000F6F35B1CB3E70120C2E701EB4101401E9A
:10061000B0FBF1F0401CC0F30B00B7E7A08601006F
:1006200080841E0000093D0040420F002DE9F84F74
:100630000025DDF82890984617468A46044600951E
:10064000FFF72AFF064694F83D0020287AD11923A7
:10065000012283492046009600F0DAFD0028F5D1FA
:1006600094F83C0001286DD0012084F83C002068FB
:100670000168C90703D1016841F0010101602068E8
:10068000016821F400610160222084F83D001020FF
:1006900084F83E0025646762A4F82A80608D208576
:1006A0007048E06233464A465146204600F0C6FC98
:1006B00000287DD1208DDFF8B081202768B1012886
:1006C00014D00228206801681ED041F480610160C6
:1006D0002068416980690090B5E0206841698169BE
:1006E0000091016841F400710160ACE0206801688C
:1006F00021F48061016072B62068416981690091CE
:10070000016841F400710AE041F40061016072B6D1
:100710002068416981690091016821F4806101606C
:1007200062B690E0032868D801280CD002284B4616
:100730004FF000024146204600960FD000F068FDC1
:10074000B0BB10E08AE032464946204600F0DFFDAB
:1007500070BB20680069616A08706BE000F058FDAA
:1007600030BB72B634E02068016821F4806101601A
:1007700072B620680069616A0870606A401C606235
:10078000208D401E2085608D401E6085374846F2D2
:10079000A8110068B0FBF1F0C0EBC00000EB8000D6
:1007A0000090401E009008D020684069C04300E0DF
:1007B00029E040070CD50098F3E744F8305F6773F1
:1007C000A573206940F02000206162B625731AE00D
:1007D0002068016841F40071016020680069616A65
:1007E0000870606A401C6062218D491E2185618D00
:1007F000491E618562B621681AE0324649462046A4
:1008000000F085FD10B10120BDE8F88F2068006977
:10081000616A0870606A401C6062218D491E2185F2
:10082000618D491E618521684A69D24352070AD405
:1008300009690170606A401C6062208D401E20853D
:10084000608D401E6085208D00287FF46BAF84F89A
:100850003D7084F83E5084F83C50D5E70220D3E741
:10086000020010000000FFFF040001002C00002027
:100870002DE9F84F1F4690468A460446DDF8289039
:10088000FFF70AFE054694F83D0020287FD1192382
:10089000012240492046009500F0BAFC002876D19C
:1008A00094F83C00012872D0012084F83C002068B4
:1008B0000168C90703D1016841F0010101602068A6
:1008C000016821F400610160212084F83D001020BE
:1008D00084F83E0000262664C4F824806785608D75
:1008E00020852D48E0622B464A465146204600F0BE
:1008F0001BFC90B9206841698069009036E02A4667
:100900004946204600F036FD50B1206C042804D141
:100910002068016841F4007101600120BDE8F88F92
:10092000606A216800780861606A401C6062618DBD
:10093000491E6185218D491E89B22185226853692E
:10094000DB435B070BD451B100781061606A401C37
:100950006062608D401E6085208D401E20852A4685
:100960004946204600F02EFC0028CED1208D0028DC
:10097000C5D154F83D0B016841F40071016020209D
:1009800004F81E09E67766770020C7E7FFE7022034
:10099000C4E70000020010000000FFFF10B586B0A1
:1009A0000021009101910291039100680F49884252
:1009B0001AD10F4CA06940F00800A061A0696946F7
:1009C00000F008000490C020009012200190032045
:1009D00003900848FFF770FCE06940F40010E06104
:1009E000E06900F40010049006B010BD005400400F
:1009F00000100240000C0140024881680278114456
:100A00008160704720000020074810B5016841F060
:100A100010010160032000F067F80F2000F006F8D5
:100A200000F024F8002010BD0020024070B50D4DEC
:100A300004464FF47A712878B1FBF0F00A4909684E
:100A4000B1FBF0F000F0CEFA48B9102C07D200222A
:100A50002146501E00F028F800206C6070BD012077
:100A600070BD0000200000202C0000200C4808B5BC
:100A7000816941F001018161816901F00101009109
:100A8000C16941F08051C161C06900F0805000909F
:100A90000448416821F0E06141F00071416008BD07
:100AA0000010024000000140F0B40E4B1B680C46E1
:100AB000C3F30223C3F10705042D00D90425191D32
:100AC000072901D2002300E0DB1E012606FA05F10A
:100AD000491E214099409E40761E16403143F0BC8D
:100AE00000F04CBD0CED00E0064900F0070208687C
:100AF0004FF6FF03184040EA0220034A1043086003
:100B0000704700000CED00E00000FA052DE9F04709
:100B10000F46050061D0434E306800F00700B84230
:100B200009D2306820F0070038433060306800F0A8
:100B30000700B84251D128683B4C810712D54007C5
:100B400003D5606840F4E06060602878000703D552
:100B5000606840F4605060606068A96820F0F00050
:100B6000084360602878C00728D06868012810D042
:100B70002168022810D0890700292EDA616821F047
:100B8000030101436160FFF787FC804641F2883929
:100B90000DE021688903EFE78901EDE7FFF77CFCB1
:100BA000A0EB0801494502D90320BDE8F087606841
:100BB000696800F00C00B0EB810FEFD1306800F0F5
:100BC0000700B8420BD9306820F007003843306086
:100BD000306800F00700B84201D00120E5E728782E
:100BE000400705D56068E96820F4E060084360606C
:100BF0002878000706D56068296920F4605040EA2B
:100C0000C100606000F028F86168084AC1F3031170
:100C1000515CC8400649086006480068FFF706FFB7
:100C20000020C2E70020024000100240961B00088E
:100C30002C00002024000020044805490068496871
:100C4000044AC1F30221515CC84070472C000020C7
:100C500000100240A61B000812A185B00FC98DE844
:100C60000F0014A0144A006804905168134801F062
:100C70000C03042B10D0082B0ED1C1F38343C903FE
:100C80001DF803000AD5516804AAC1F34041515C24
:100C90000A4A5043B0FBF1F005B070470849484399
:100CA000FAE7000002030405060708090A0B0C0D09
:100CB0000E0F1010010200000010024000127A0016
:100CC00000093D002DE9F84F040070D02078C04D98
:100CD000C00749D06868C0F38100012807D0686860
:100CE000C0F38100022809D16868C00306D52868CE
:100CF000800339D560680028E7D035E06068B0F53A
:100D0000803F0BD010B1B0F5A02F11D0286820F48F
:100D100080302860286820F4802002E0286840F4B1
:100D200080302860606890B1FFF7B6FB06460AE0A5
:100D3000286840F480202860F0E700BFFFF7ACFB94
:100D4000801B642873D828688003F7D50CE0FFF770
:100D5000A3FB064605E000BFFFF79EFB801B64284F
:100D6000F0D828688003F7D420789A4E80074FF097
:100D700001094FF0000839D5686810F00C0F07D052
:100D80006868C0F38100022809D16868C00306D4EE
:100D90002868800714D52069012808D110E020694F
:100DA000B0B1C6F80090FFF777FB074605E00AE10F
:100DB000FFF772FBC01B0228C4D828688007F7D54C
:100DC0002868616920F0F80040EAC10028600DE061
:100DD000C6F80080FFF760FB074604E0FFF75CFB06
:100DE000C01B022823D828688007F7D42078000782
:100DF0002CD57948A169D9B1C0F80090FFF74CFB18
:100E0000074604E0FFF748FBC01B02280FD8686ABA
:100E10008007F7D571484FF4FA510068B0FBF1F044
:100E2000009000BF0098411E0091FAD20EE080E0D1
:100E3000C0F80080FFF730FB074604E0FFF72CFB0B
:100E4000C01B022875D8686A8007F7D4207840074D
:100E500060D5E8690027C00008D4E86940F08050F8
:100E6000E861E869012700F0805000905C48016863
:100E7000C90513D40168834641F480710160FFF70E
:100E80000BFB824606E000BFFFF706FBA0EB0A0063
:100E900064284ED8DBF80000C005F5D5E0680128CD
:100EA0000AD008B1052813D0286A20F00100286272
:100EB000286A20F0040002E0286A40F0010028625D
:100EC000E06841F2883B98B1FFF7E6FA82460BE012
:100ED000286A40F004002862EEE700BFFFF7DCFA62
:100EE000A0EB0A0159455AD8286A8007F6D50CE0CC
:100EF000FFF7D2FA824605E0FFF7CEFAA0EB0A012F
:100F000059454CD8286A8007F6D41FB1E86920F00B
:100F10008050E861E06988B36968C1F38101022902
:100F200044D00228C6F8608004D0FFF7B5FA044622
:100F300038E034E0FFF7B0FA074604E0FFF7ACFA18
:100F4000C01B02282BD828688001F7D4206AB0F58E
:100F5000803F05D16868A16820F4003008436860CC
:100F6000D4E908010843696821F4741108436860F2
:100F7000C6F86090FFF790FA044606E025E000BF4F
:100F8000FFF78AFA001B022809D828688001F7D5E4
:100F90001BE000BFFFF780FA001B022802D90320E4
:100FA000BDE8F88F28688001F4D40EE00128F7D05E
:100FB0006868226A00F48031914204D1616A00F4C9
:100FC0007010884201D00120EAE70020E8E7000025
:100FD0000010024000004242800442422C000020E7
:100FE0000070004010B5401EB0F1807F01D3012099
:100FF00010BD4FF0E02460610F21601700F0BEFAD1
:101000000020A06107202061002010BDFEE70168DC
:101010004A69D24352050FD46FF480624A610021BD
:1010200040F8301F202242738173026942F00402AB
:101030000261017301207047002070472DE9F84FCD
:101040000446C06A1E4693460D4621680A6842F46B
:1010500080620A60082807D0012805D010F5803F7B
:1010600002D0206B112804D12068016841F48071FE
:1010700001604FF001195B46002249462046009668
:1010800000F0C6F84FF4007840B120680068C00551
:1010900001D5C4F840800320BDE8F88F2069DFF84F
:1010A00084A0B0F5804F0FD00620216800EAD51744
:1010B00047F0F000086133465A460AF1060120461F
:1010C00000F0DAF858BB03E0E8B240F001001CE0A1
:1010D0002168E8B2086133465A465146204600F07E
:1010E000CBF8E0B92068416981690091016841F459
:1010F000807101605B46002249462046009600F060
:1011000087F80028C1D147F0F10021680861334613
:101110005A465146204600F0AFF80028BCD00120C6
:10112000BAE7000002000100F8B50446C06A1E4696
:101130000D461746082807D0012805D010F5803F36
:1011400002D0206B122804D12068016841F480711C
:101150000160134600224FF001112046009600F076
:1011600057F840B120680068C00502D54FF4007000
:1011700020640320F8BD2069B0F5804F0ED0062012
:10118000216800EAD51040F0F000086133463A4685
:101190000B49204600F070F878B902E005F0FE0037
:1011A00000E0E8B221680861054933463A46891FE4
:1011B000204600F061F80028DCD00120F8BD0000D6
:1011C0000800010070B516460D4604460DE02046A5
:1011D000FFF71DFF08B1012070BD681C05D0FFF7A7
:1011E0005BF9801BA84207D835B120684069C0432D
:1011F0004007ECD4002070BD002044F8300F2021BF
:101200006173A073216941F0200121612073E2E73D
:101210002DE9F0471E4690460D460446C1F30747A8
:10122000DDF8209008E0701C06D0FFF735F9A0EB40
:101230000900B0420FD876B12068012F18D080691C
:1012400025EA00000004000C14D000214145EAD03A
:101250000020BDE8F087002044F8300F20216173A2
:10126000A073216941F02001216120730120F0E782
:101270004069E5E70121E9E72DE9F0479A46914603
:101280000E46044600254FF02008C1F3074725E02D
:1012900020684069C043400514D42068016841F4C7
:1012A0000071016021686FF480604861256384F8F3
:1012B0003D8084F83E50206C40F00400206484F8A7
:1012C0003C501FE0B9F1FF3F08D0FFF7E5F8A0EB75
:1012D0000A0149450CD8B9F1000F09D02068012F47
:1012E00013D0806926EA00000004000C0BD0CFE781
:1012F00044F8305F84F80D80A573206940F0200029
:10130000206125730120BDE8F0874069EAE72DE9F7
:10131000F041002590460E460446202717E040691C
:10132000C043C0060CD454F8301B6FF01000486165
:1013300044F810596777A577206A2062257717E06F
:10134000FFF7AAF8A0EB0800B04208D83EB1206829
:101350004169C9434906E2D40020BDE8F08144F860
:10136000305F6773A573206940F02000206125730A
:101370000120F2E770B516460D4604460DE0204602
:10138000FFF745FE08B1012070BD681C05D0FFF7CE
:1013900083F8801BA84207D835B120684069C04354
:1013A0000006ECD4002070BD002044F8300F20214E
:1013B0006173A073216941F0200121612073E2E78C
:1013C00000B585B0002002901648816941F02001E7
:1013D0008161816901F020010491816941F004017A
:1013E0008161816901F004010491816941F0080182
:1013F0008161816901F008010491816941F0100166
:1014000081618069694600F0100004904FF400503B
:10141000009001200190022003900348FEF74CFF4A
:1014200005B000BD0010024000100140FEE7FEE7DD
:1014300070470000F8B5642401232B4AA6212B48ED
:101440000094FFF715FA6420FEF724FF0623284ACC
:10145000A62126480094FFF7E9F8254C143C607D4E
:10146000217D41EA00206080E07DA17D41EA0020ED
:10147000A080607E217E41EA0020E0803220FEF7DD
:1014800009FFB4F9020000F06BFA1A4E4FF0333541
:101490002A46334600F07CFA174F00223B4600F004
:1014A00007F900F0D3F8A060B4F9040000F058FA8E
:1014B0002A46334600F06CFA00223B4600F0F8F86A
:1014C00000F0C4F8E060B4F9060000F049FA2A46DA
:1014D000334600F05DFA00223B4600F0E9F800F0E8
:1014E000B5F82061F8BD0000180000203000002091
:1014F0009800002033333F4000408F407047000089
:1015000008B5064A0223107051704FF47A700090AB
:10151000A6210348FFF7ACF908BD00000000002039
:1015200030000020FFF768BA10B590B02821684657
:10153000FEF74AFE14210AA8FEF746FE022000909C
:101540000120049010200024059007946846FFF7BE
:10155000B9FB08B172B6FEE70F20CDE90A040C947E
:101560000D9400210AA80E94FFF7D0FA002801D0AC
:1015700072B6FEE710B010BD7047FEE70907090E0E
:10158000002804DB00F1E02080F80014704700F030
:101590000F0000F1E02080F8141D704738B54FF4BB
:1015A0007A740123134AA62113480094FFF760F9C7
:1015B0006420FEF76FFE0123104AA6210E48009416
:1015C000FFF734F80D49012008770878E52802D0A4
:1015D0000020087738BD074C0A21207CFFF790FFD8
:1015E000607C0821FFF78CFF607D0321FFF788FFF7
:1015F00038BD0000020000203000002084000020E0
:10160000FFF702FAFFF790FFFFF7DAFE0D480C49EB
:101610004FF4804201600C49416000218160C0E9C3
:10162000031241618161C1610162FEF73BFF08B1B4
:1016300072B6FEE7FFF7B2FFFFF7FCFEFCE7000023
:101640000054004030000020801A060021F00042C3
:10165000A2F16052B2F5801F01F0004328BFD2F121
:101660007F6C0BD95FEA001C43EAC20242EB507068
:1016700018BF704728BF20F001007047B2F5801FE7
:10168000BCBF184670474FEA410C1CF5001F02D240
:10169000084600F07BBA70B500F024FA000000891B
:1016A000FFF7F6BF4FF00040A0F580007047000044
:1016B0002DE9C04130B4DFF8A0C23CEA111418BFD4
:1016C0003CEA131400F0EC8081EA03051CEA1114D3
:1016D00044EAD57418BF1CEA131500F0C780A4EBC8
:1016E00005044FF0004545EAC12145EAC32341EA1C
:1016F000505143EA525304F17F74994204F5003487
:101700004FEAC0204FEAC22208BF904200F09C80FE
:101710004FEA13650FF24016765D4FEA134506FB5C
:1017200005F7C7F1807706FB07F74FEAD737A7FB26
:1017300003687642C8F58038A7FB06CE38BFA8F10B
:10174000010807FB08E64FF0000EA6FB028CE6FB43
:1017500003CEDCF1000CCEF1004E38BFAEF1010E2D
:10176000A6FB0C584FF000074FF00005E6FB0E8774
:10177000A1FB08C6A0FB07CE16EB0E0645F100053F
:10178000E1FB076515F1E04E7EBFA4F580345FEA0A
:1017900046066D4116F1800745F100054FEA17270F
:1017A0004FEA066647EA0567A6F1DE46B6F1805FB6
:1017B0004FEA15251FD9384624F0010C05EBC471FA
:1017C000BCF1FE6F01EB0C1102D8F0BCBDE800814A
:1017D00024425CBF01F5801E9EEAC47F02D4F0BCA7
:1017E000BDE80081244238D4F0BCA1F1C041BDE87D
:1017F000004100F0C5B94FEAD22242EA43524FEA13
:10180000D323A7FB02864FEAD02040EA415007FBD2
:1018100003661EEA0E0F4FEAD12105FB026658BF90
:10182000A6EB0056B6EB00564FEA520E4EEAC37EC8
:1018300018EB0E0E56EB530EBDD518EB02085E41A9
:101840007F1C55F10005B6E74FF480154FF00007F7
:101850004FF000064FF00008ADE7F0BC4FF000007D
:1018600001F1C04101F00041BDE8008111EA0C1F07
:101870000CEA131500D00CE013EA0C1F00F02580D1
:101880004FF00000F0BC81EA030101F00041BDE827
:101890000081F0BCBDE8004181EA030100F070B9AD
:1018A000F0BCBDE8004170B500F01CF9097EFC3EBB
:1018B00000F007B881EA03014FF0000001F0004199
:1018C000704781EA030100F05BB9F0BCBDE800415C
:1018D0004FF0000021497047FFFDFBF9F7F5F4F2E6
:1018E000F0EEEDEBE9E8E6E4E3E1E0DEDDDBDAD8BB
:1018F000D7D5D4D3D1D0CFCDCCCBCAC8C7C6C5C419
:10190000C2C1C0BFBEBDBCBBBAB9B8B7B6B5B4B32F
:10191000B2B1B0AFAEADACABAAA9A8A8A7A6A5A41A
:10192000A3A3A2A1A09F9F9E9D9C9C9B9A999998DE
:101930009797969595949393929191908F8F8E8E81
:101940008D8C8C8B8B8A898988888787868585840E
:1019500084838382828181800000FF070000F87FFA
:1019600010F0004248BF4042B0FA80F310FA03F191
:101970000AD0C3F11D0303F580634FEA415002EB27
:10198000035202EBD12170474FF000007047000076
:10199000DFF848C170B51CEA111E1EBF1CEA131502
:1019A0009EEA0C0F95EA0C0F00F06F8081EA0304A9
:1019B00023EA4C134EEAD47E21EA4C1141F4801103
:1019C00043F48013AE44A1FB024CA0FB0365AEF1CF
:1019D0007F7E361955EB0C05A1FB034C4CF100033F
:1019E000A0FB021C16EB0C06654153F100030942F3
:1019F00018BF46F0010613F4007F0BD14FEA033104
:101A00004FEA0530340341EA155140EA16506FF0B1
:101A100003020AE04FEAC3214FEAC520F40241EA7B
:101A2000555140EA56506FF0020202EB2E4201EB94
:101A3000025585EACE710AD05FEA440C18BF24F043
:101A4000004450F1000041F1000120EAD47040F25E
:101A5000FE7C624500D270BDA84214BF4FF08044A6
:101A60004FF04044002E08BF0024BEF1806FA8BF95
:101A7000A1F1C041BDE8704080F282804FF00000CB
:101A800001F1C04101F0004170479EEA0C0F0CEAE1
:101A9000131518BF95EA0C0F06D04FF0000081EA2D
:101AA000030E0EF0004170BD00F01CF88900013EED
:101AB00000F007B800F009B84FEA430C5FEA5C5C3D
:101AC00008D081EA030100F05BB84FEA410C5FEAFD
:101AD0005C5CF6D14FF00000014970470000FF0741
:101AE0000000F87F0EF1020E2EF0030E5EF8046B7C
:101AF000364205D4012A43EB030515F5001F12D821
:101B0000012841EB010C1CF5001F0CD80ED14FEA47
:101B1000D17C15F5001F0CEB4C0C0CF1020C08BF2E
:101B20004CEBD37C04E04FF0080C01E04FEAD37C8F
:101B30000CEB4C0526FA05F606F00706B6F1040C88
:101B400006D20EEB860CBDE870404CF0010C6047ED
:101B5000DFE80CF0090B02024FF000414FF00000EB
:101B6000A1F5002170BD19461046012851EB010472
:101B700018BFD4F5001484BF002001F0004170BDEF
:101B80000808A0F500114FEA31017047FF2141EA32
:101B9000D050C005704700000000000000000102A6
:101BA0000304060708090000000001020304000006
:101BB000D01B0008000000203000000028010008B1
:101BC000001C000830000020D80600004401000876
:101BD0000000001D1E1F202122232425262728293E
:101BE0002A2B2C2D2E2F30313233343536373839DD
:101BF0000100000010000000000000000024F400BC
:04000005080000ED02
:00000001FF
