:020000040800F2
:1000000008070020890100088F1800082113000844
:100010008D1800088F0200080F190008000000006A
:10002000000000000000000000000000931800081D
:10003000910200080000000091180008B91800089B
:10004000A3010008A3010008A3010008A301000800
:10005000A3010008A3010008A3010008A3010008F0
:10006000A3010008A301000893020008A3010008EF
:10007000A3010008A3010008A3010008A3010008D0
:10008000A3010008A3010008A3010008A3010008C0
:10009000A3010008A3010008A301000899020008B9
:1000A000A3010008A3010008A3010008A3010008A0
:1000B000A3010008A3010008A3010008A301000890
:1000C000A3010008A3010008A3010008A301000880
:1000D000A3010008A3010008A3010008A301000870
:1000E000A3010008A3010008A301000800F002F822
:1000F00000F03AF80AA090E8000C82448344AAF188
:100100000107DA4501D100F02FF8AFF2090EBAE885
:100110000F0013F0010F18BFFB1A43F0010318473B
:10012000D8180000F8180000103A24BF78C878C129
:10013000FAD8520724BF30C830C144BF04680C60ED
:10014000704700000023002400250026103A28BF35
:1001500078C1FBD8520728BF30C148BF0B60704739
:100160001FB51FBD10B510BD00F058F81146FFF7C0
:10017000F7FF01F00FFC00F076F803B4FFF7F2FF91
:1001800003BC00F07DF8000009488047094800479B
:10019000FEE7FEE7FEE7FEE7FEE7FEE7FEE7FEE737
:1001A000FEE7FEE704480549054A064B7047000094
:1001B0000D190008ED0000080801002008070020C4
:1001C00008030020080300204FF0000200B513468A
:1001D00094469646203922BFA0E80C50A0E80C5067
:1001E000B1F12001BFF4F7AF090728BFA0E80C5018
:1001F00048BF0CC05DF804EB890028BF40F8042B11
:1002000008BF704748BF20F8022B11F0804F18BF7D
:1002100000F8012B7047704770477047754600F033
:100220002BF8AE4605006946534620F00700854688
:1002300018B020B5FFF7B6FFBDE820404FF000062C
:100240004FF000074FF000084FF0000B21F00701BE
:10025000AC46ACE8C009ACE8C009ACE8C009ACE801
:10026000C0098D46704710B50446AFF300802046A4
:10027000BDE81040FFF781BF00487047A80000208C
:1002800001491820ABBEFEE7260002007047FEE7DA
:100290007047102000F04AB8202000F047B8000056
:1002A0003EB501220E48CDE9000264210D480291BD
:1002B0000123027DA6210C4800F0C4FB084C1B3C26
:1002C000E07E400706D54FF40051084800F02AF9B7
:1002D0000020E076BDE83E40322000F009B8000082
:1002E0004F000020020000205400002000100140B8
:1002F00070B5044600F024F90546601C02D004489D
:100300000078044400F01CF9401BA042FAD370BDF1
:1003100024000020FF21044A102803D0202800D107
:10032000517070471170704720000020044910B5CB
:100330000A68024202D00860FFF7ECFF10BD00001F
:10034000140401402DE9F84FDFF8B891002409F1B9
:10035000040A0AF1040B23460F270BF1040EC9E02F
:100360000125A5402A40AA427DD1674ED1F804C09C
:10037000ACEB0608B44532D014DCBCF1030F3AD024
:1003800009DCBCF1000F2AD0BCF1010F1CD0BCF17C
:10039000020F31D11DE0BCF1110F17D0BCF1120FCB
:1003A0002AD119E0B8F5881F19D006DCB8F5803FCE
:1003B00015D0B8F5801F1FD111E0B8F5001F0ED081
:1003C000B8F5041F18D10AE0CB6815E0CB681B1DF7
:1003D00012E0CB6808330FE0CB680C330CE08B687D
:1003E0002BB1012B4FF0080303D0456104E0042337
:1003F00002E0056100E00023FF2A01D8064601E083
:1004000000F104064FEA840501D9A5F12005D6F8CC
:10041000008007FA05FC28EA0C0803FA05F548EA0B
:100420000508C6F800804D68ED0062D5374DAE690D
:1004300046F00106AE61AD6924F0030605F0010542
:100440000095334D06EB050CDCF80850A607360F77
:1004500007FA06F825EA0805DFF8B880404503D119
:100460004FF0000817E044E0DFF8AC80404502D1CF
:100470004FF001080FE0DFF8A480404502D14FF0B3
:10048000020808E0DFF89880404502D14FF00308E9
:1004900001E04FF0040808FA06F848EA0508CCF82D
:1004A00008804D68D9F80060ED034D4601D516432C
:1004B00000E096432E604D68DAF80060AD035546C3
:1004C00001D5164300E096432E604D68DBF80060CE
:1004D000ED025D4601D5164300E096432E604D685F
:1004E000DEF80060AD02754601D5164300E0964384
:1004F0002E60641C0D682A46E5407FF431AFBDE8EC
:10050000F88F0000000401400000111000100240AC
:100510000000014000080140000C014000100140B3
:1005200000140140C26821EA02030A4043EA024182
:10053000016170470AB1016170470904FBE70000DF
:1005400001488068704700002400002070B5040056
:1005500025D094F83D00002520B984F83C50204671
:1005600000F098FB242084F83D002068016821F009
:10057000010101602068016841F4004101602068C8
:10058000016821F40041016000F0E0FC4D4A61681F
:10059000914201D84C4900E04C49884201D20120E7
:1005A00070BD4B492368B0FBF1F15E6826F03F0651
:1005B0000E435E606368934206D94FF496735943C5
:1005C0004FF47A73B1FBF3F12368491C1E6A26F0DD
:1005D0003F06314319626168914210D84900401EBC
:1005E000B0FBF1F2521CC2F30B02042A01D2042028
:1005F00022E0B0FBF1F0401CC0F30B001CE0A2684D
:10060000F2B301EBC10303EB0116431EB3FBF6F398
:100610005B1C43F480431B0549D092B301EBC1023C
:1006200002EB0111401EB0FBF1F0401CC0F30B00C7
:1006300040F4804040F400402168CA694CF6FF73E2
:100640009A431043C861D4E9071001432068026847
:1006500022F0C00211430160D4E903010143206884
:10066000826848F2FF339A4311438160D4E905015F
:1006700008432168CA6822F0FF021043C86001E005
:100680000EE016E02068016841F001010160256478
:10069000202084F83D00256384F83E50002070BD82
:1006A00001EB4106431EB3FBF6F35B1CB3E70120ED
:1006B000C2E701EB4101401EB0FBF1F0401CC0F36A
:1006C0000B00B7E7A086010080841E0000093D00F2
:1006D00040420F002DE9F84F0025DDF8289098469C
:1006E00017468A4604460095FFF72AFF064694F807
:1006F0003D0020287AD11923012283492046009603
:1007000000F08EFF0028F5D194F83C0001286DD050
:10071000012084F83C0020680168C90703D1016802
:1007200041F0010101602068016821F4006101606D
:10073000222084F83D00102084F83E002564676282
:10074000A4F82A80608D20857048E06233464A46CE
:100750005146204600F0FCFD00287DD1208DDFF8B9
:10076000B081202768B1012814D0022820680168D0
:100770001ED041F480610160206841698069009069
:10078000B5E02068416981690091016841F4007118
:100790000160ACE02068016821F48061016072B6FC
:1007A0002068416981690091016841F400710AE0A3
:1007B00041F40061016072B620684169816900916D
:1007C000016821F48061016062B690E0032868D876
:1007D00001280CD002284B464FF00002414620462B
:1007E00000960FD000F01CFFB0BB10E08AE032464C
:1007F0004946204600F093FF70BB20680069616A9B
:1008000008706BE000F00CFF30BB72B634E020687B
:10081000016821F48061016072B620680069616A34
:100820000870606A401C6062208D401E2085608DCB
:10083000401E6085374846F2A8110068B0FBF1F011
:10084000C0EBC00000EB80000090401E009008D07C
:1008500020684069C04300E029E040070CD50098BB
:10086000F3E744F8305F6773A573206940F0200018
:10087000206162B625731AE02068016841F40071B6
:10088000016020680069616A0870606A401C6062EB
:10089000218D491E2185618D491E618562B62168C1
:1008A0001AE032464946204600F039FF10B10120D7
:1008B000BDE8F88F20680069616A0870606A401CB2
:1008C0006062218D491E2185618D491E61852168E7
:1008D0004A69D24352070AD409690170606A401C10
:1008E0006062208D401E2085608D401E6085208DB9
:1008F00000287FF46BAF84F83D7084F83E5084F894
:100900003C50D5E70220D3E7020010000000FFFFB3
:1009100004000100300000202DE9F84F1F469046EA
:100920008A460446DDF82890FFF70AFE054694F84B
:100930003D0020287FD119230122404920460095FF
:1009400000F06EFE002876D194F83C00012872D0A9
:10095000012084F83C0020680168C90703D10168C0
:1009600041F0010101602068016821F4006101602B
:10097000212084F83D00102084F83E0000262664E3
:10098000C4F824806785608D20852D48E0622B4661
:100990004A465146204600F051FD90B92068416911
:1009A0008069009036E02A464946204600F0EAFE7B
:1009B00050B1206C042804D12068016841F4007112
:1009C00001600120BDE8F88F606A21680078086145
:1009D000606A401C6062618D491E6185218D491EDF
:1009E00089B2218522685369DB435B070BD451B17F
:1009F00000781061606A401C6062608D401E6085F6
:100A0000208D401E20852A464946204600F0E2FD02
:100A10000028CED1208D0028C5D154F83D0B0168A7
:100A200041F400710160202004F81E09E677667722
:100A30000020C7E7FFE70220C4E700000200100023
:100A40000000FFFF2DE9FF4F83B00025DDE910799D
:100A50009A4693460446DDF848800095FFF770FDFE
:100A6000064694F83D0020287CD1192301228549AF
:100A70002046009600F0D4FD0028F5D194F83C0003
:100A800001286FD0012084F83C0020680168C90764
:100A900003D1016841F0010101602068016821F47F
:100AA00000610160222084F83D00402084F83E006F
:100AB00025646762A4F82A90608D20857248E06200
:100AC000CDE9008653465A462046049900F004FDBD
:100AD00000287DD1208DDFF8B491202768B101284E
:100AE00014D00228206801681ED041F480610160A2
:100AF0002068416980690090B6E020684169816999
:100B00000091016841F400710160ADE02068016866
:100B100021F48061016072B62068416981690091A9
:100B2000016841F400710AE041F40061016072B6AD
:100B30002068416981690091016821F48061016048
:100B400062B691E0032868D801280CD002284346F9
:100B50004FF000024946204600960FD000F060FD9D
:100B6000B0BB10E08BE032464146204600F0D7FD96
:100B700070BB20680069616A08706CE000F050FD8D
:100B800030BB72B634E02068016821F480610160F6
:100B900072B620680069616A0870606A401C606211
:100BA000208D401E2085608D401E6085384846F2AD
:100BB000A8110068B0FBF1F0C0EBC00000EB8000B2
:100BC0000090401E009008D020684069C04300E0BB
:100BD00029E040070CD50098F3E744F8305F6773CD
:100BE000A573206940F02000206162B625731AE0E9
:100BF0002068016841F40071016020680069616A41
:100C00000870606A401C6062218D491E2185618DDB
:100C1000491E618562B621681BE032464146204686
:100C200000F07DFD18B1012007B0BDE8F08F20680D
:100C30000069616A0870606A401C6062218D491E0B
:100C40002185618D491E618521684A69D243520719
:100C50000AD409690170606A401C6062208D401EE0
:100C60002085608D401E6085208D00287FF46AAF4E
:100C700084F83D7084F83E5084F83C50D4E702205C
:100C8000D2E70000020010000000FFFF0400010096
:100C90003000002010B586B0002100910191029132
:100CA000039100680F4988421AD10F4CA06940F0A7
:100CB0000800A061A069694600F008000490C02007
:100CC000009012200190032003900848FFF73AFBA0
:100CD000E06940F40010E061E06900F40010049065
:100CE00006B010BD0054004000100240000C01404E
:100CF0000248816802781144816070472400002016
:100D0000074810B5016841F010010160032000F0B0
:100D100075F80F2000F006F800F024F8002010BD50
:100D20000020024070B50D4D04464FF47A712878CA
:100D3000B1FBF0F00A490968B1FBF0F000F0DCFA11
:100D400048B9102C07D200222146501E00F036F878
:100D500000206C6070BD012070BD000024000020E8
:100D6000300000200C4808B5816941F00101816123
:100D7000816901F001010091C16941F08051C161B7
:100D8000C06900F0805000900448416821F0E061A3
:100D900041F00071416008BD0010024000000140B8
:100DA000002809DB00F01F0201219140400980006A
:100DB00000F1E020C0F8001170470000F0B40E4BC5
:100DC0001B680C46C3F30223C3F10705042D00D9A9
:100DD0000425191D072901D2002300E0DB1E01268E
:100DE00006FA05F1491E214099409E40761E1640A4
:100DF0003143F0BC00F08CBD0CED00E0064900F082
:100E0000070208684FF6FF03184040EA0220034A31
:100E100010430860704700000CED00E00000FA0588
:100E20002DE9F0470F46050061D0434E306800F0D1
:100E30000700B84209D2306820F00700384330601C
:100E4000306800F00700B84251D128683B4C810758
:100E500012D5400703D5606840F4E06060602878F0
:100E6000000703D5606840F4605060606068A9685E
:100E700020F0F000084360602878C00728D0686838
:100E8000012810D02168022810D0890700292EDA05
:100E9000616821F0030101436160FFF751FB804667
:100EA00041F288390DE021688903EFE78901EDE718
:100EB000FFF746FBA0EB0801494502D90320BDE836
:100EC000F0876068696800F00C00B0EB810FEFD12B
:100ED000306800F00700B8420BD9306820F00700F6
:100EE00038433060306800F00700B84201D001207C
:100EF000E5E72878400705D56068E96820F4E060F8
:100F0000084360602878000706D56068296920F4E6
:100F1000605040EAC100606000F028F86168084A4B
:100F2000C1F30311515CC8400649086006480068D7
:100F3000FFF7F8FE0020C2E7002002400010024048
:100F4000E01900083000002028000020044805496E
:100F500000684968044AC1F30221515CC8407047E7
:100F60003000002000100240F019000812A185B0E6
:100F70000FC98DE80F0014A0144A0068049051684E
:100F8000134801F00C03042B10D0082B0ED1C1F331
:100F90008343C9031DF803000AD5516804AAC1F3AD
:100FA0004041515C0A4A5043B0FBF1F005B0704734
:100FB00008494843FAE70000020304050607080948
:100FC0000A0B0C0D0E0F1010010200000010024061
:100FD00000127A0000093D002DE9F84F040070D09E
:100FE0002078C04DC00749D06868C0F3810001284F
:100FF00007D06868C0F38100022809D16868C0037F
:1010000006D52868800339D560680028E7D035E028
:101010006068B0F5803F0BD010B1B0F5A02F11D0B3
:10102000286820F480302860286820F4802002E0BE
:10103000286840F480302860606890B1FFF780FA3B
:1010400006460AE0286840F480202860F0E700BFE8
:10105000FFF776FA801B642873D828688003F7D5D9
:101060000CE0FFF76DFA064605E000BFFFF768FAEF
:10107000801B6428F0D828688003F7D420789A4E23
:1010800080074FF001094FF0000839D5686810F06B
:101090000C0F07D06868C0F38100022809D1686886
:1010A000C00306D42868800714D52069012808D118
:1010B00010E02069B0B1C6F80090FFF741FA07468A
:1010C00005E00AE1FFF73CFAC01B0228C4D82868F3
:1010D0008007F7D52868616920F0F80040EAC10070
:1010E00028600DE0C6F80080FFF72AFA074604E002
:1010F000FFF726FAC01B022823D828688007F7D4F8
:10110000207800072CD57948A169D9B1C0F80090A2
:10111000FFF716FA074604E0FFF712FAC01B022891
:101120000FD8686A8007F7D571484FF4FA51006804
:10113000B0FBF1F0009000BF0098411E0091FAD280
:101140000EE080E0C0F80080FFF7FAF9074604E0FF
:10115000FFF7F6F9C01B022875D8686A8007F7D434
:101160002078400760D5E8690027C00008D4E86906
:1011700040F08050E861E869012700F0805000905D
:101180005C480168C90513D40168834641F4807145
:101190000160FFF7D5F9824606E000BFFFF7D0F9FE
:1011A000A0EB0A0064284ED8DBF80000C005F5D596
:1011B000E06801280AD008B1052813D0286A20F079
:1011C00001002862286A20F0040002E0286A40F04A
:1011D00001002862E06841F2883B98B1FFF7B0F95E
:1011E00082460BE0286A40F004002862EEE700BF68
:1011F000FFF7A6F9A0EB0A0159455AD8286A8007DB
:10120000F6D50CE0FFF79CF9824605E0FFF798F968
:10121000A0EB0A0159454CD8286A8007F6D41FB1C3
:10122000E86920F08050E861E06988B36968C1F33B
:101230008101022944D00228C6F8608004D0FFF75B
:101240007FF9044638E034E0FFF77AF9074604E016
:10125000FFF776F9C01B02282BD828688001F7D445
:10126000206AB0F5803F05D16868A16820F400309D
:1012700008436860D4E908010843696821F47411DF
:1012800008436860C6F86090FFF75AF9044606E024
:1012900025E000BFFFF754F9001B022809D8286891
:1012A0008001F7D51BE000BFFFF74AF9001B0228B9
:1012B00002D90320BDE8F88F28688001F4D40EE03D
:1012C0000128F7D06868226A00F48031914204D185
:1012D000616A00F47010884201D00120EAE7002022
:1012E000E8E7000000100240000042428004424251
:1012F000300000200070004010B5401EB0F1807F2B
:1013000001D3012010BD4FF0E02460610F21601770
:1013100000F0FEFA0020A06107202061002010BD2F
:10132000FEE701684A69D24352050FD46FF4806228
:101330004A61002140F8301F202242738173026904
:1013400042F00402026101730120704700207047DF
:101350002DE9F84F0446C06A1E4693460D462168A3
:101360000A6842F480620A60082807D0012805D084
:1013700010F5803F02D0206B112804D1206801684D
:1013800041F4807101604FF001195B46002249462B
:101390002046009600F044F94FF4007840B12068F0
:1013A0000068C00501D5C4F840800320BDE8F88F6F
:1013B0002069DFF884A0B0F5804F0FD006202168A7
:1013C00000EAD51747F0F000086133465A460AF1A3
:1013D0000601204600F058F958BB03E0E8B240F09F
:1013E00001001CE02168E8B2086133465A465146C4
:1013F000204600F049F9E0B920684169816900910F
:10140000016841F4807101605B4600224946204634
:10141000009600F005F90028C1D147F0F1002168DD
:10142000086133465A465146204600F02DF90028FF
:10143000BCD00120BAE7000002000100F8B5044664
:10144000C06A1E460D461746082807D0012805D059
:1014500010F5803F02D0206B122804D1206801686B
:1014600041F480710160134600224FF001112046C3
:10147000009600F0D5F840B120680068C00502D59C
:101480004FF4007020640320F8BD2069B0F5804F50
:101490000ED00620216800EAD51040F0F000086167
:1014A00033463A460B49204600F0EEF878B902E0A0
:1014B00005F0FE0000E0E8B2216808610549334606
:1014C0003A46891F204600F0DFF80028DCD00120D2
:1014D000F8BD0000080001002DE9F84F044600683F
:1014E00089460B9D01689846174641F4806101606A
:1014F0002068016841F48071016000954FF0011B84
:101500000022594620460A9B00F08AF84FF4007AE0
:1015100040B120680068C00501D5C4F840A0032090
:10152000BDE8F88F216809F0FE0008612B462849C4
:1015300020460A9A00F0A8F8F0BB2068416980694B
:1015400000902A4620460A9900F01CF940B1206C10
:1015500004283AD12068016841F40071016034E048
:10156000FEB2B8F1010F09D02168380A08612A4695
:1015700020460A9900F006F90028E8D120680661A3
:101580002A4620460A9900F0FDF80028DFD120689D
:10159000016841F48071016000950022594620469F
:1015A0000A9B00F03DF80028B3D1216809F0FF0044
:1015B00040F00100086100E007E02B4604492046A6
:1015C0000A9A00F061F80028AAD00120A8E70000DC
:1015D0000200010070B516460D4604460DE0204697
:1015E000FFF79FFE08B1012070BD681C05D0FEF713
:1015F000A7FF801BA84207D835B120684069C043C7
:101600004007ECD4002070BD002044F8300F2021AA
:101610006173A073216941F0200121612073E2E729
:101620002DE9F0471E4690460D460446C1F3074794
:10163000DDF8209008E0701C06D0FEF781FFA0EBDB
:101640000900B0420FD876B12068012F18D0806908
:1016500025EA00000004000C14D000214145EAD026
:101660000020BDE8F087002044F8300F202161738E
:10167000A073216941F02001216120730120F0E76E
:101680004069E5E70121E9E72DE9F0479A469146EF
:101690000E46044600254FF02008C1F3074725E019
:1016A00020684069C043400514D42068016841F4B3
:1016B0000071016021686FF480604861256384F8DF
:1016C0003D8084F83E50206C40F00400206484F893
:1016D0003C501FE0B9F1FF3F08D0FEF731FFA0EB0F
:1016E0000A0149450CD8B9F1000F09D02068012F33
:1016F00013D0806926EA00000004000C0BD0CFE76D
:1017000044F8305F84F80D80A573206940F0200014
:10171000206125730120BDE8F0874069EAE72DE9E3
:10172000F041002590460E460446202717E0406908
:10173000C043C0060CD454F8301B6FF01000486151
:1017400044F810596777A577206A2062257717E05B
:10175000FEF7F6FEA0EB0800B04208D83EB12068C4
:101760004169C9434906E2D40020BDE8F08144F84C
:10177000305F6773A573206940F0200020612573F6
:101780000120F2E770B516460D4604460DE02046EE
:10179000FFF7C7FD08B1012070BD681C05D0FEF73A
:1017A000CFFE801BA84207D835B120684069C043EE
:1017B0000006ECD4002070BD002044F8300F20213A
:1017C0006173A073216941F0200121612073E2E778
:1017D00070B586B0002429480094019402940394C3
:1017E000816941F010018161816901F0100104916A
:1017F000816941F020018161816901F0200104913A
:10180000816941F004018161816901F00401049161
:10181000816941F0080181618069194E00F008007A
:101820004FF400550490002229463046FEF782FE10
:1018300001200095CDE90104022469463046039455
:10184000FEF780FD302000900E48CDE90104694686
:101850000D48FEF777FD002211460A20FFF7AEFA89
:101860000A20FFF79DFA002211461720FFF7A6FA7B
:101870001720FFF795FA06B070BD00000010024077
:101880000010014000001110000C0140FEE7FEE7CF
:101890007047704708B5064A0223107051704FF424
:1018A0007A700090A6210348FFF736F808BD0000C3
:1018B0000000002054000020FFF71ABA10B590B0C5
:1018C00028216846FEF780FC14210AA8FEF77CFC5C
:1018D000022000900120049010200024059007941D
:1018E0006846FFF779FB08B172B6FEE70F20CDE935
:1018F0000A040C940D9400210AA80E94FFF790FAA4
:10190000002801D072B6FEE710B010BD7047FEE7A8
:101910000907090E002804DB00F1E02080F800141C
:10192000704700F00F0000F1E02080F8141D7047B0
:1019300038B54FF47A740123134AA6211348009452
:10194000FEF7EAFF6420FEF7D3FC0123104AA6212C
:101950000E480094FEF7BEFE0D4901200877087876
:10196000E52802D00020087738BD074C0A21207CEA
:10197000FFF790FF607C0821FFF78CFF607D03215B
:10198000FFF788FF38BD000002000020540000204F
:1019900034000020FFF7B4F9FFF790FFFFF718FFBE
:1019A0000D480C494FF4804201600C494160002110
:1019B0008160C0E9031241618161C1610162FEF78A
:1019C000C5FD08B172B6FEE7FFF7B2FFFEF768FC8F
:1019D000FCE700000054004054000020801A06007C
:1019E00000000000000000000102030406070809CF
:1019F0000000000001020304181A00080000002083
:101A000034000000280100084C1A000834000020AF
:101A1000D4060000440100080000001D1E1F202104
:101A200022232425262728292A2B2C2D2E2F30311E
:101A300032333435363738390000000001000000F9
:0C1A400010000000000000000024F40072
:04000005080000ED02
:00000001FF
